:1000000010C02AC029C028C027C026C025C024C0CF
:1000100023C022C021C020C01FC01EC01DC01CC0E4
:100020001BC011241FBECFE5D1E0DEBFCDBF10E065
:10003000A0E6B0E0E8EDF2E002C005900D92AE3827
:10004000B107D9F720E0AEE8B0E001C01D92AA3AAE
:10005000B207E1F700D13EC1D3CFDC01FA01108233
:100060008C918623E9F78CE18A95F1F7000088E30B
:100070008A95F1F700C08C91862319F08081816008
:10008000808388E38A95F1F700C08C91862319F06C
:1000900080818260808388E38A95F1F700C08C912B
:1000A000862319F080818460808388E38A95F1F744
:1000B00000C08C91862319F080818860808388E35A
:1000C0008A95F1F700C08C91862319F080818061B8
:1000D000808388E38A95F1F700C08C91862319F01C
:1000E00080818062808388E38A95F1F700C08C91DB
:1000F000862319F080818064808388E38A95F1F7F4
:1001000000C08C91682319F080818068808388E327
:100110008A95F1F700C08CE18A95F1F70000089507
:10012000FC019081862F80959823908398E39A957F
:10013000F1F700C0908140FF02C0962B01C09823C8
:10014000908398E39A95F1F700C0908141FF02C037
:10015000962B01C09823908398E39A95F1F700C0FD
:10016000908142FF02C0962B01C09823908398E3B0
:100170009A95F1F700C0908143FF02C0962B01C011
:100180009823908398E39A95F1F700C0908144FFFB
:1001900002C0962B01C09823908398E39A95F1F7BB
:1001A00000C0908145FF02C0962B01C09823908328
:1001B00098E39A95F1F700C0908146FF02C0962B14
:1001C00001C09823908398E39A95F1F700C047FF08
:1001D00003C08081862B02C090818923808388E3BD
:1001E0008A95F1F700C08081682B608398E39A9527
:1001F000F1F700C088E38A95F1F700C00895FF92F7
:100200000F931F93CF93DF93EC01F62E8A01109288
:10021000A9001092A800E091A800F091A900E00FB9
:10022000F11F40816F2DCE017BDF2091A80030911E
:10023000A9002F5F3F4F3093A9002093A800F80139
:10024000E20FF31F80818111E6CFDF91CF911F91E3
:100250000F91FF90089580E886BD16BCD99AD19A77
:10026000BA9AC4E047EA50E061E089E390E0F5DE45
:1002700040E650E062E08BE390E0C1DF8091A700B0
:1002800080938E004EE850E062E08BE390E0B7DFB1
:1002900042E262E08BE390E043DF4AE062E08BE31E
:1002A00090E03EDF8091A7008F36E1F646E750E010
:1002B00062E08BE390E0A3DF42E262E08BE390E058
:1002C0002FDF4AE062E08BE390E02ADF88B38C27DF
:0802D00088BBC8CFF894FFCFF2
:1002D800415454494E5934343A20796F7520747911
:1002E800706564202200415454494E5934343A20F0
:0E02F800676F7420796F7572206F20220000EE
:00000001FF
