:1000000010C017C016C015C014C013C012C011C054
:1000100010C00FC00EC00DC00CC00BC00AC009C07C
:1000200008C011241FBECFE5D1E0DEBFCDBF02D096
:1000300027C0E6CFD398BA9A8FEF8BBBC298CB99E3
:10004000FDCFC29A2FE38DE093E021508040904095
:10005000E1F700C00000C2982FE38DE093E021504B
:1000600080409040E1F700C00000C29A2FE38DE08D
:1000700093E0215080409040E1F700C00000DECFC7
:04008000F894FFCF22
:00000001FF
