:1000000010C017C016C015C014C013C012C011C054
:1000100010C00FC00EC00DC00CC00BC00AC009C07C
:1000200008C011241FBECFE5D1E0DEBFCDBF02D096
:1000300057C0E6CFD09AD19AD29AD39A1BBA2FE35F
:100040008DE093E0215080409040E1F700C0000037
:10005000D89A2FEF88E09DE3215080409040E1F74F
:1000600000C00000D8982FE38DE093E0215080403D
:100070009040E1F700C00000D99A2FEF88E09DE39F
:10008000215080409040E1F700C00000D9982FE354
:100090008DE093E0215080409040E1F700C00000E7
:1000A000DA9A2FEF88E09DE3215080409040E1F7FD
:1000B00000C00000DA982FE38DE093E021508040EB
:1000C0009040E1F700C00000DB9A2FEF88E09DE34D
:1000D000215080409040E1F700C00000DB98AFCF96
:0400E000F894FFCFC2
:00000001FF
