:1000000010C017C016C015C014C013C012C011C054
:1000100010C00FC00EC00DC00CC00BC00AC009C07C
:1000200008C011241FBECFE5D1E0DEBFCDBF12D086
:1000300026C0E6CF80E487B987E886B9089597B1EE
:100040008770987F892B87B9369A3699FECF84B10D
:1000500095B10895EFDF2FE38DE093E021508040CC
:100060009040E1F700C00000BA9A83E0E8DF8F3FDC
:10007000910509F010F4C298F8CFC29AF6CFF8941F
:02008000FFCFB0
:00000001FF
